:020000040800F2
:1000000048070020CD010008550C0008E90A000847
:10001000510C00086D0500086F0F0008000000007B
:10002000000000000000000000000000390D000882
:100030007105000800000000DD0C0008250E000816
:10004000E7010008E7010008E7010008E7010008F0
:10005000E7010008E701000875050008A105000890
:10006000D10500080106000835060008E701000870
:10007000E7010008E7010008E7010008E7010008C0
:10008000E7010008E7010008E7010008E7010008B0
:10009000E7010008E7010008E7010008E7010008A0
:1000A000E7010008E7010008E7010008E701000890
:1000B000E7010008E7010008E7010008E701000880
:1000C000E7010008E7010008E7010008E701000870
:1000D000E7010008890E0008E7010008E7010008B1
:1000E000E7010008E7010008E7010008E701000850
:1000F000E7010008E7010008E7010008E701000840
:10010000E7010008E7010008E7010008E70100082F
:10011000E7010008E7010008E7010008E70100081F
:10012000E7010008E7010008E7010008E70100080F
:1001300000F002F800F03AF80AA090E8000C8244BF
:100140008344AAF10107DA4501D100F02FF8AFF29C
:10015000090EBAE80F0013F0010F18BFFB1A43F0A5
:10016000010318473C1900005C190000103A24BF35
:1001700078C878C1FAD8520724BF30C830C144BF0C
:1001800004680C607047000000230024002500264E
:10019000103A28BF78C1FBD8520728BF30C148BFEA
:1001A0000B6070471FB51FBD10B510BD00F033F8D0
:1001B0001146FFF7F7FF00F013FF00F051F803B40A
:1001C000FFF7F2FF03BC00F0D4FE000009488047AF
:1001D00009480047FEE7FEE7FEE7FEE7FEE7FEE729
:1001E000FEE7FEE7FEE7FEE704480549054A064B41
:1001F00070470000290E0008310100084801002066
:10020000480700204803002048030020704770473B
:10021000704770477047754600F028F8AE460500F5
:100220006946534620F00700854618B020B5FFF711
:10023000DBFFBDE820404FF000064FF000074FF015
:1002400000084FF0000B21F00701AC46ACE8C009F4
:10025000ACE8C009ACE8C009ACE8C0098D467047FD
:100260000446AFF300802046FFF7A9FF004870471F
:10027000E80000202DE9F0410A210B2000F003FCEA
:100280000D4908800846008801F02AFB804601F0ED
:10029000DFFA06460022094B01F0E6F8044600F0BA
:1002A000B1FE0749086007490548006801F02CFBCA
:1002B00003490860BDE8F081100000200000543FB1
:1002C0000C0000200000204221B1826842F00102AF
:1002D000826003E0826822F00102826070470000C1
:1002E00010B504461248844208D10121401500F09F
:1002F00013FD0021601500F00FFD17E00D4884424A
:1003000008D10121001500F007FD0021201500F0A3
:1003100003FD0BE00848844208D10121C80300F026
:10032000FBFC00214FF4004000F0F6FC10BD000083
:100330000024014000280140003C0140014600200B
:100340008A6802F004020AB1012000E00020704730
:100350000146C86C80B270470246002013680B400B
:100360000BB1012000E000207047000030B50246CC
:100370000020002350680F4C20400D790C6844EA9F
:1003800005242043506090680B4C2040D1E9025472
:100390002C434D7944EA450420439060D06A20F410
:1003A00070000C7C641EE4B2234340EA0350D06228
:1003B00030BD0000FFFEF0FFFDF7F1FF2DE9F05F1B
:1003C0000A210C2000F05FFB1849088008460088CD
:1003D00001F086FA804601F03BFA06460022144BF3
:1003E00001F042F8044600F00DFE1249086008468C
:1003F000006801F02DFA804600220F4B01F032F91F
:1004000004460D460D490B48006801F07DFA804610
:1004100001F01EFA064622462B4600F0CDFE82462B
:1004200000F0F0FD03490860BDE8F09F10000020D7
:100430000000543F0C00002000001E400000A040BF
:10044000F0B504460D4600200021092D11DDE068BD
:10045000A5F10A0606EB4607072606FA07F18843C8
:10046000A5F10A0606EB460603FA06F10843E0602A
:100470000CE0206905EB4507072606FA07F18843DB
:1004800005EB450603FA06F108432061072A0FDA57
:10049000606B561E06EB86071F2606FA07F1884397
:1004A000561E06EB860605FA06F10843606322E055
:1004B0000D2A0FDA206BD61F06EB86071F2606FAD9
:1004C00007F18843D61F06EB860605FA06F10843B6
:1004D000206310E0E06AA2F10D0606EB86071F26F6
:1004E00006FA07F18843A2F10D0606EB860605FA27
:1004F00006F10843E062F0BD21B1826842F4A00237
:10050000826003E0826822F4A00282607047816802
:1005100041F00401816070472DE9F0410A2108464D
:1005200000F0B1FA0E4908800846008801F0D8F9B9
:10053000804601F08DF9064600220A4B00F094FF38
:10054000044600F05FFD084908604FF0814106480D
:10055000006801F0D9F904490860BDE8F0810000A5
:10056000100000200000543F0C00002000BFFEE7F8
:100570007047000010B50121084800F07BFA48B927
:100580000A2000F0F9FC0121044800F073FA08B9D0
:10059000FFF7C2FF802000F0F1F810BD000C014011
:1005A00010B50221094800F065FA48B90A2000F0A8
:1005B000E3FC0221054800F05DFA08B9FFF75AFE96
:1005C0004FF4807000F0DAF810BD0000000C01401C
:1005D00010B50421094800F04DFA48B90A2000F08E
:1005E000CBFC0421054800F045FA08B9FFF7E6FE08
:1005F0004FF4007000F0C2F810BD0000000C014084
:1006000010B50821094800F035FA50B90A2000F069
:10061000B3FC0821054800F02DFA10B90020044968
:1006200008604FF4806000F0A9F810BD000C014094
:100630000C00002010B51021094800F01BFA50B939
:100640000A2000F099FC1021054800F013FA10B9B7
:100650000020044908604FF4006000F08FF810BDDE
:10066000000C01400C0000200EB54FF4A06000F01B
:100670002BFB0121084600F03FFB0021012000F088
:1006800009F9012001908DF80A0000208DF808007A
:100690000C208DF8090001A800F076F80121084629
:1006A00000F0F8F80220019001A800F06DF8022196
:1006B000012000F0EFF80420019001A800F064F898
:1006C0000321012000F0E6F80820019001A800F0C5
:1006D0005BF80421012000F0DDF81020019001A852
:1006E00000F052F806208DF8000001208DF803007C
:1006F00002208DF8010000208DF80200684600F00D
:10070000ABFA07208DF8000001208DF803000220CD
:100710008DF8010001208DF80200684600F09CFA77
:1007200008208DF8000001208DF8030002208DF8CC
:1007300001008DF80200684600F08EFA09208DF85D
:10074000000001208DF8030002208DF80100032035
:100750008DF80200684600F07FFA0A208DF800004C
:1007600001208DF8030002208DF8010004208DF88F
:100770000200684600F070FA0EBD000001490860F2
:100780007047000014040140002123498279002AA7
:100790003AD00A46126803689A430B461A600A1D4B
:1007A000126803689A430B1D1A60027911440A68A3
:1007B00003681A430A60184A0832126803689A43A9
:1007C000154B08331A601A1D126803689A43124BBE
:1007D0000C331A604279102A0ED11A1F126803686E
:1007E0001A430D4B08331A601A1D126803681A4326
:1007F000094B0C331A600DE00749427911440A682D
:1008000003681A430A6005E0027911440A68036824
:100810009A430A60704700000004014000B587B0A9
:1008200001214FF4027000F067FA4FF4004000F02D
:1008300057FA1F20ADF8040000208DF8070001A929
:10084000124800F047F81248FFF74AFD00200290D6
:100850008DF80D004FF460200490002005900120D9
:100860008DF8180002A90A48FFF780FD0121084809
:10087000FFF72AFD0648FFF74AFE00BF0448FFF7CE
:100880005DFD0028FAD107B000BD00000010014056
:100890000024014030B500228B071C0F0F2303FA00
:1008A00004F20B4B8C1053F824309343084C8D10FA
:1008B00044F8253023468C1053F824308C07240F3D
:1008C00000FA04F42343024C8D1044F8253030BD67
:1008D000080001402DE9F0410246002500260020D5
:1008E00000230024002791F803C00CF00F0591F8B5
:1008F00003C00CF0100CBCF1000F03D091F802C043
:100900004CEA050591F800C0BCF1000F31D0146825
:1009100000202BE04FF0010C0CFA00F3B1F800C0FE
:100920000CEA03069E4220D183004FF00F0C0CFA14
:1009300003F7BC4305FA03FC4CEA040491F803C036
:10094000BCF1280F06D14FF0010C0CFA00FCC2F8E4
:1009500014C00AE091F803C0BCF1480F05D14FF074
:10096000010C0CFA00FCC2F810C0401C0828D1D3BE
:100970001460B1F800C0BCF1FF0F34DD54680020F2
:100980002EE000F1080C4FF0010808FA0CF3B1F862
:1009900000C00CEA03069E4221D183004FF00F0CE9
:1009A0000CFA03F7BC4305FA03FC4CEA040491F883
:1009B00003C0BCF1280F05D100F1080C08FA0CF8AF
:1009C000C2F8148091F803C0BCF1480F07D100F1C0
:1009D000080C4FF0010808FA0CF8C2F81080401C0F
:1009E0000828CED35460BDE8F081000008B501218D
:1009F000082000F081F91F20ADF8000048208DF894
:100A0000030069460148FFF765FF08BD000C01407F
:100A100008B50121382000F06FF94FF47F40ADF8A0
:100A2000000010208DF8030003208DF802006946B5
:100A30000D48FFF74FFF4FF47060ADF80000032042
:100A40008DF8020010208DF8030069460748FFF773
:100A500041FF0420ADF8000048208DF803006946EE
:100A60000348FFF737FF08BD00100140000C0140AC
:100A7000001401400246002093680B400BB1012096
:100A800000E0002070472DE9F04107460C460025A4
:100A9000002608E0384600F00DF80544052000F077
:100AA0006BFA701CC6B2A642F4DBB5FBF4F080B260
:100AB000BDE8F08110B5044607230122214609480C
:100AC000FFF7BEFC01210748FFF716FD00BF02211A
:100AD0000448FFF741FC0028F9D00248FFF738FC32
:100AE00010BD00000024014000BFFEE72DE9F047E3
:100AF000814604215048FFF7BDFF00287ED14F49B1
:100B0000484600F001FF824600F0CEFE04464FF456
:100B10007A7094FBF0F594FBF0F100FB1140642136
:100B200090FBF1F6642094FBF0F100FB11400A21E8
:100B300090FBF1F70A2094FBF0F100FB1148002034
:100B40003F49086001203F49C1F8A4013C490831F0
:100B500008603C49C1F8AC013B48405DC043000619
:100B60003949495D40EA012038490861012000F017
:100B700029FA4FF07F40354908610120304908606B
:100B80000020091D08600120091D08602D49C1F8D9
:100B9000AC012D48805DC04300062B49895D40EAC9
:100BA00001202A490861012000F00CFA4FF07F4033
:100BB00026490861012022490860091D08600020BB
:100BC000091D086001201F49C1F8AC011E48C05D25
:100BD0008030C04301061C48C05D8030C0B241EA8D
:100BE00000201A490861012000F0ECF94FF07F4025
:100BF0001649086101201249086000E01AE0091D49
:100C00000860091D08600020091D08600E4810F8E2
:100C10000800C04300060C4911F8081040EA012002
:100C20000A490861012000F0CDF94FF07F400749E3
:100C3000086100BFBDE8F0870014014000002041BA
:100C4000A0812142008021420000002000100140CC
:100C500000BFFEE77047000070B5002100230F229F
:100C6000C47804B3154C246804F4E064C4F5E0646B
:100C7000210AC1F10403CA40447804FA03F18478DC
:100C80001440214309010E4C0678A155047804F064
:100C90001F050124AC4005786D11AD0005F1E0257C
:100CA000C5F8004109E0047804F01F050124AC40B8
:100CB000044D0678761145F8264070BD0CED00E035
:100CC00000E400E080E100E002490143024A1160D3
:100CD000704700000000FA050CED00E070470000CE
:100CE00001460020034A506820F440400843506009
:100CF000704700000010024029B1064A9269024381
:100D0000044B9A6104E0034A92698243014B9A6161
:100D1000704700000010024029B1064AD268024321
:100D2000044BDA6004E0034AD2688243014BDA6084
:100D30007047000000100240704710B500F002F844
:100D400010BD00000CB500200190009033480068F1
:100D500040F480303149086000BF3048006800F43A
:100D6000003000900198401C0190009818B901983B
:100D7000B0F5A06FF1D12948006800F4003010B13F
:100D80000120009001E0002000900098012843D14C
:100D90002348006840F010002149086008460068B8
:100DA00020F0030008600846006840F00200086078
:100DB0001A48406819494860084640684860084633
:100DC000406840F4806048600846406820F47C1029
:100DD00048600846406840F4E810486008460068EB
:100DE00040F08070086000BF0C48006800F00070A0
:100DF0000028F9D00948406820F0030007494860FE
:100E00000846406840F00200486000BF0348406860
:100E100000F00C000828F9D10CBD000000100240C1
:100E2000002002407047000010B51348006840F0F1
:100E300001001149086008464068104908400E4901
:100E40004860084600680E4908400B49086008469B
:100E5000006820F4802008600846406820F4FE0006
:100E600048604FF41F008860FFF767FF4FF0006095
:100E70000449086010BD0000001002400000FFF8A7
:100E8000FFFFF6FE08ED00E010B540F225511D48C9
:100E900000F03EF810B31B4800F064F8C4B21A48E2
:100EA000008800F40040C8B91748008800F480406A
:100EB00060B10A2C03D000201349088020E01248BA
:100EC000008840F400401049088019E00D2C06D13C
:100ED0000D48008840F480400B49088010E00A4823
:100EE0000088C0F30D0009490C5407480088401CD5
:100EF0000549088008460088C72801DD00200880D1
:100F000010BD0000003801401C000020200000201F
:100F100070B50246002400230025002040F66A1622
:100F2000B14200D100BFC1F3421501F01F030126F9
:100F300006FA03F3012D02D19689334006E0022D13
:100F400002D1168A334001E0968A33400C12012602
:100F500006FA04F41688344013B10CB1012000E005
:100F6000002070BD01468888C0F30800704700BFAC
:100F7000FEE700BF704700000146114A12884A434D
:100F80004FF0E0235A6100229A611A46126942F03A
:100F900001021A6100BF4FF0E022106900F0010267
:100FA0001AB100F48032002AF5D04FF0E022126925
:100FB00022F001024FF0E0231A6100229A6170478B
:100FC00014000020014605E0002001E0421CD0B2E0
:100FD0007828FBDB0A00A1F10101F5D17047000080
:100FE000FFF716FDFFF702FDFFF73EFBFFF716FCCC
:100FF000FFF792FA03E002480068FFF777FDFAE78F
:101000000C00002021F00042A2F16052B2F5801FD6
:1010100001F0004328BFD2F17F6C0BD95FEA001CBE
:1010200043EAC20242EB507018BF704728BF20F05D
:1010300001007047B2F5801FBCBF184670474FEAE9
:10104000410C1CF5001F02D2084600F024BD70B50B
:1010500000F0B4FA00000089FFF7F6BF4FF000403F
:10106000A0F580007047000010B591EA030F48BF5B
:1010700083F0004300F10A83841A71EB030C05D25C
:10108000121943EB0C03001B61EB0C01DFF824E1A8
:101090004FEA1154A4EB135C1EEA430F18BF9EEAFB
:1010A000445F73D023EA0E03DCF1200E21EA0451E1
:1010B00043F4801332D322FA0CFE10EB0E0023FA15
:1010C0000CFE41EB0E01CCF1200E03FA0EFE10EBEC
:1010D0000E0051F10001B1F5801FCCF1200E32D28B
:1010E00001EB045112FA0EF2BDE8104058BF7047F0
:1010F000401C38BF5FEA420218BF7047002814BF87
:1011000020F0010041F100014FEA410313F5001FF7
:1011100038BF7047A1F1C04100F09EBA012A43EBED
:101120000302ACF1200CDCF11F0E32BF4FF0000EB9
:1011300023FA0CF310EB030041EB0451B4EB115F05
:10114000D0D0A1EB045101F5801149085FEA3000CD
:1011500001EB04510ED350F1000038BF12FA0EFE1D
:1011600008D1BDE81040C9E7401C38BF5FEA420221
:10117000CAD1C3E7BDE810404FEA410313F5001F91
:1011800038BF7047A1F1C04100F066BA9EEA445FE3
:1011900008D011EA5E0FBDE8104004BF01F0004125
:1011A00000207047BDE8104070B500F007FA00BF9E
:1011B00064FBBE3E0000E0FF2DE9C04130B4DFF823
:1011C000A0C23CEA111418BF3CEA131400F0EC80F2
:1011D00081EA03051CEA111444EAD57418BF1CEA1D
:1011E000131500F0C780A4EB05044FF0004545EA55
:1011F000C12145EAC32341EA505143EA525304F165
:101200007F74994204F500344FEAC0204FEAC222AD
:1012100008BF904200F09C804FEA13650FF2401621
:10122000765D4FEA134506FB05F7C7F1807706FBAD
:1012300007F74FEAD737A7FB03687642C8F580382F
:10124000A7FB06CE38BFA8F1010807FB08E64FF060
:10125000000EA6FB028CE6FB03CEDCF1000CCEF107
:10126000004E38BFAEF1010EA6FB0C584FF0000740
:101270004FF00005E6FB0E87A1FB08C6A0FB07CEDA
:1012800016EB0E0645F10005E1FB076515F1E04E92
:101290007EBFA4F580345FEA46066D4116F18007F3
:1012A00045F100054FEA17274FEA066647EA05674A
:1012B000A6F1DE46B6F1805F4FEA15251FD9384604
:1012C00024F0010C05EBC471BCF1FE6F01EB0C11B5
:1012D00002D8F0BCBDE8008124425CBF01F5801E4D
:1012E0009EEAC47F02D4F0BCBDE80081244238D419
:1012F000F0BCA1F1C041BDE8004100F0ADB94FEA3A
:10130000D22242EA43524FEAD323A7FB02864FEA96
:10131000D02040EA415007FB03661EEA0E0F4FEA59
:10132000D12105FB026658BFA6EB0056B6EB00566E
:101330004FEA520E4EEAC37E18EB0E0E56EB530EDA
:10134000BDD518EB02085E417F1C55F10005B6E7DC
:101350004FF480154FF000074FF000064FF00008E3
:10136000ADE7F0BC4FF0000001F1C04101F00041D9
:10137000BDE8008111EA0C1F0CEA131500D00CE047
:1013800013EA0C1F00F025804FF00000F0BC81EA4A
:10139000030101F00041BDE80081F0BCBDE800415F
:1013A00081EA030100F058B9F0BCBDE8004170B516
:1013B00000F004F9097EFC3E00F007B881EA030161
:1013C0004FF0000001F00041704781EA030100F096
:1013D00043B9F0BCBDE800414FF00000214970471F
:1013E000FFFDFBF9F7F5F4F2F0EEEDEBE9E8E6E4EA
:1013F000E3E1E0DEDDDBDAD8D7D5D4D3D1D0CFCD71
:10140000CCCBCAC8C7C6C5C4C2C1C0BFBEBDBCBBA9
:10141000BAB9B8B7B6B5B4B3B2B1B0AFAEADACABA4
:10142000AAA9A8A8A7A6A5A4A3A3A2A1A09F9F9E7E
:101430009D9C9C9B9A999998979796959594939330
:10144000929191908F8F8E8E8D8C8C8B8B8A8989C7
:10145000888887878685858484838382828181804A
:101460000000FF070000F87FDFF848C170B51CEAF4
:10147000111E1EBF1CEA13159EEA0C0F95EA0C0FF5
:1014800000F06F8081EA030423EA4C134EEAD47E15
:1014900021EA4C1141F4801143F48013AE44A1FBC6
:1014A000024CA0FB0365AEF17F7E361955EB0C05AF
:1014B000A1FB034C4CF10003A0FB021C16EB0C0635
:1014C000654153F10003094218BF46F0010613F4C9
:1014D000007F0BD14FEA03314FEA0530340341EA74
:1014E000155140EA16506FF003020AE04FEAC3219B
:1014F0004FEAC520F40241EA555140EA56506FF0D8
:10150000020202EB2E4201EB025585EACE710AD0AF
:101510005FEA440C18BF24F0004450F1000041F190
:10152000000120EAD47040F2FE7C624500D270BD1A
:10153000A84214BF4FF080444FF04044002E08BF33
:101540000024BEF1806FA8BFA1F1C041BDE870408A
:1015500080F282804FF0000001F1C04101F00041B3
:1015600070479EEA0C0F0CEA131518BF95EA0C0F92
:1015700006D04FF0000081EA030E0EF0004170BD6E
:1015800000F01CF88900013E00F007B800F009B82F
:101590004FEA430C5FEA5C5C08D081EA030100F08B
:1015A0005BB84FEA410C5FEA5C5CF6D14FF000009B
:1015B000014970470000FF070000F87F0EF1020E9E
:1015C0002EF0030E5EF8046B364205D4012A43EB7D
:1015D000030515F5001F12D8012841EB010C1CF57D
:1015E000001F0CD80ED14FEAD17C15F5001F0CEB73
:1015F0004C0C0CF1020C08BF4CEBD37C04E04FF018
:10160000080C01E04FEAD37C0CEB4C0526FA05F6FA
:1016100006F00706B6F1040C06D20EEB860CBDE808
:1016200070404CF0010C6047DFE80CF0090B02023F
:101630004FF000414FF00000A1F5002170BD1946A8
:101640001046012851EB010418BFD4F5001484BFE3
:10165000002001F0004170BD0808A0F500114FEA1C
:101660003101704791EA030F10B581F000413FF559
:1016700003AD83F0004300F009B8000010B591EA13
:10168000030F48BF83F000433FF5F6AC841A71EBBB
:10169000030C07D212198CF0004C43EB0C03001B17
:1016A00061EB0C01DFF8A4E14FEA1154A4EB135CE9
:1016B0001EEA430F18BF9EEA445F00F0B08023EAA1
:1016C0006E03524221EA0451C3EB6E0338BF5B1E26
:1016D000DCF1200E25D322FA0CFE10EB0E0043FAAB
:1016E0000CFE41EB0E01CCF1200E03FA0EFE10EBC6
:1016F0000E0051F10001CCF1200E29D412FA0EF2A5
:1017000001EB0451BDE8104058BF7047401C1CBF9E
:10171000B2F1004F704700280CBF491C20F00100B7
:10172000704712EB020E43EB030218BF4FF0010E9D
:101730004EEA4202ACF1200CDCF11E0E54D943FA01
:101740000CFE10EB0E0051F1FF31CCF11E0ED5D581
:101750000EF1010E12FA0EFE404141EB010101EBC8
:10176000445C5FEA5C5C10D910EBDE7001EB045165
:1017700038BFBEF1004FBDE8104018BF70470028C9
:101780000CBF491C20F00100704730D24FEAD42C26
:1017900011F5001124F400641BD0B1FA81F20B3A68
:1017A000A41AA41ED2F12003914030FA03F3194386
:1017B000904001EBCC71002C01EB0451BDE81040CE
:1017C000A8BF704701F1C0414FF0000001F0004197
:1017D0007047B0FA80F310FA03F100D110BDE41A9B
:1017E000173C4805C90AE4E701EB045110BD491054
:1017F00001EB0451BDE810404FEA300002E04FF029
:10180000000170474A0008BF0042F8D0B2F5001F3F
:1018100028BF704701F000414FF0000070479EEA7A
:10182000445F07D011EA5E0FBDE8104004BF0021FD
:1018300000207047BDE8104070B5FFF7BFFE00BF45
:1018400040DFF63E83F00041104670470000E0FFA5
:1018500043004FEAD30C4FEA3C0C43401FBF400704
:101860000CF1605113F0FE4F70471CF0006F03D174
:1018700000200CF0004170470CF0004343EA507028
:1018800010B540EACC0000F0C0F800BF00000092A4
:101890004FEA0001FFF7E0BE4FF000414FF00000BB
:1018A000A1F500217047000041000B0ED3F19E020C
:1018B00008D950F400034FEA032323FA02F048BF8B
:1018C0004042704710B500F0A0F800BF4992248054
:1018D000002070476FF0004282EA2000704700004D
:1018E000B0FA80F310FA03F2C3F19D030AD0D905D0
:1018F00001EB1220530638BF704700F1010008BF0A
:1019000020F00100704700004FF47F0C1CEAD01259
:101910001EBF1CEAD11392EA0C0F93EA0C0F00F0E1
:10192000478090EA010F48BF42F480724FF0004CAC
:101930004CEA00204CEA012102EB0302A0FB011358
:10194000A2F50002002918BF43F001035B0028BF85
:101950004FEA330342EB22425FEA132C4CEBC250B6
:101960002EBFBCEB436FB2F57C0F70474FEA036CA0
:10197000BCF1004F08BF20F00100B2F57C0F38BF6A
:1019800070470BD582F0FF0212F5803FC8BF704749
:1019900000F1C040D8BF00F00040704700F5000CD7
:1019A0005FEA4C0C48BF7047B0F1C04000F073B81C
:1019B00090EA010F0CEAD11348BF42F480726245ED
:1019C00038BF634504D280EA010000F00040704750
:1019D00010B500F01AF800BF8900013E00F007B80A
:1019E00000F009B85FEA410C5FEA1C6C08D080EA9D
:1019F000010000F050B85FEA400C5FEA1C6CF6D1C1
:101A00004FF00040A0F5800070470EF1020E2EF05E
:101A1000030E5EF8044B244204D44FEA4102B2F1B3
:101A20007F4F11D84FEA4003B3F17F4F0CD80ED14E
:101A30004FEAD07CB2F17F4F0CEB4C0C0CF1020C56
:101A400008BF4CEBD17C04E04FF0080C01E04FEAFA
:101A5000D17C0CEB4C0324FA03F404F00704B4F13A
:101A6000040C06D20EEB840CBDE810404CF0010CC7
:101A70006047DFE80CF0070802024FF00040A0F5D5
:101A8000800010BD0846420018BFD2F1807288BFA6
:101A900000F0004010BDFF2141EAD050C005704762
:101AA000C01A000800000020200000006C0100089F
:101AB000E01A000820000020280700008801000824
:101AC0003F065B4F666D7D077F6F000000000000E2
:101AD0000000000000000000000000000000000006
:0400000508000131BD
:00000001FF
